:100000000C9466000C9483000C9483000C94830081
:100010000C9483000C9483000C9483000C94830054
:100020000C9483000C9483000C9483000C94830044
:100030000C9483000C9483000C9483000C94830034
:100040000C9483000C9483000C9483000C94830024
:100050000C9483000C9483000C9483000C94830014
:100060000C9483000C9483000C9483000C94830004
:100070000C9483000C9483000C9483000C948300F4
:100080000C9483000C9483000C9483000C948300E4
:100090000C9483000C9483000C9483000C948300D4
:1000A0000C9483000C9483000C9483000C948300C4
:1000B0000C9483000C9483000C9483000C948300B4
:1000C0000C9483000C9483000C94830011241FBEB5
:1000D000CFEFD8E0DEBFCDBF11E0A0E0B1E0E2EDB0
:1000E000F5E002C005900D92A230B107D9F721E0EA
:1000F000A2E0B1E001C01D92AB30B207E1F70E946F
:1001000095000C94E7020C940000FC012181622B05
:1001100061830895FC012281622B62830895FC01B2
:100120009281609569236283089560E183E290E0A3
:100130000E94850060E875E288EC90E00E949B02D6
:1001400040E85AE166E070E08CE490E00E94AF0085
:100150000E94BF010E94B70180E090E00895CF9314
:10016000DF93EC019A01AB0160E074E284EF90E070
:100170000E94C5022230310528F480E5888381E0A1
:1001800089832FC02430310520F480E588831982CB
:1001900028C02830310528F481E5888381E08983EF
:1001A00020C02031310520F481E58883198219C0EF
:1001B0002032310528F482E5888381E0898311C0EB
:1001C0002034310520F482E5888319820AC0203862
:1001D000310520F483E58883198203C083E6809388
:1001E0000901CC34D10559F460E283E290E00E9429
:1001F0008A0060E283E290E00E9485000AC068E025
:1002000083E290E00E948A0068E083E290E00E942E
:10021000850060E883E290E00E948F0060E883E25E
:1002200090E00E94850080910901DF91CF910895AF
:10023000FC01628391819923ECF782810895CF922A
:10024000DF92EF92FF92CF93DF93803480F46A01C4
:100250007B01D82F8EE6809309016D2F60648CE4BA
:1002600090E00E94180180930801C0E01EC089E65A
:10027000809309012DC023E030E02C1B3109220FAF
:10028000331F220F331F220F331FC701B60104C0D3
:1002900096958795779567952A95D2F78CE490E0A7
:1002A0000E94180180930801CF5FC43020F3DD2342
:1002B00021F0D83021F463E403C06AE401C061E0B6
:1002C0008CE490E00E94180180930801809109015C
:1002D000DF91CF91FF90EF90DF90CF9008950F9333
:1002E0001F93CF93DF93D82F8B018EE68093090164
:1002F000C0E06FEF8CE490E00E9418018093080149
:10030000CF5F8F3F11F4C111F4CFC11104C084E756
:10031000809309011EC0982F9E7F31F0F8018083E1
:1003200084E68093090115C0F8018083D23070F40F
:1003300010C06FEF8CE490E00E94180180930801D8
:10034000F801EC0FF11D8083CF5F01C0C1E0CD1734
:1003500080F36FEF8CE490E00E9418018093080115
:1003600080910901DF91CF911F910F91089562E073
:1003700071E085E00E946F01809307010895CF939B
:1003800060E183E290E00E948A00C1E008C04FEF84
:1003900050E060E070E080E00E941F01CF5FCB3052
:1003A000B0F360E183E290E00E948F0040E050E013
:1003B000BA0180E00E941F0162E071E085E00E94C6
:1003C0006F01809307018E3609F0A5C060E183E2DA
:1003D00090E00E948F004AEA51E060E070E088E01F
:1003E0000E941F0180930A018E3639F462E071E0A9
:1003F00085E00E946F0180930A0160E183E290E052
:100400000E948A0080910201813009F080C08091B1
:100410000A018E3609F07BC080910501813009F018
:1004200072C0809106018A3A09F06DC060E183E2F2
:1004300090E00E948F0040E050E0BA018AE30E9401
:100440001F0162E071E085E00E946F0160E183E2DC
:1004500090E00E948A0080910201813009F067C01B
:100460008091050182FD03C0857009F460C060E1E0
:1004700083E290E00E948F0040E050E0BA0187E301
:100480000E941F0162E071E085E00E946F0140E080
:1004900050E060E070E489E20E941F0162E071E0D8
:1004A00085E00E946F0162E071E085E00E946F01CB
:1004B00040E050E060E070E489E20E941F0180911A
:1004C00002018111F0CF80910901843761F38E36EA
:1004D00071F540E050E0BA018AE30E941F0162E03A
:1004E00071E085E00E946F0180910601982F96705F
:1004F000F1F0877021F088E68093000118C083E74F
:100500008093000114C086E78093070110C086E73E
:10051000809307010CC080910201853021F48EE6A2
:100520008093070104C080910A01809307018091A4
:100530000701CF910895CF93DF93EC01CB01A0E0A9
:10054000B0E0880F991FAA1FBB1F880F991FAA1F11
:10055000BB1F9C01AD01220F331F441F551F220FEB
:10056000331F441F551F60E074E284EF90E00E9447
:10057000C502215031093D832C83188286E08A838D
:1005800088E18983DF91CF910895A1E21A2EAA1BF9
:10059000BB1BFD010DC0AA1FBB1FEE1FFF1FA21733
:1005A000B307E407F50720F0A21BB30BE40BF50B30
:1005B000661F771F881F991F1A9469F760957095B9
:1005C000809590959B01AC01BD01CF010895F894F1
:0205D000FFCF5B
:0205D200200007
:00000001FF
