S01300004578706572696D656E74322E73726563BE
S11300000C9466000C9483000C9483000C9483007D
S11300100C9483000C9483000C9483000C94830050
S11300200C9483000C9483000C9483000C94830040
S11300300C9483000C9483000C9483000C94830030
S11300400C9483000C9483000C9483000C94830020
S11300500C9483000C9483000C9483000C94830010
S11300600C9483000C9483000C9483000C94830000
S11300700C9483000C9483000C9483000C948300F0
S11300800C9483000C9483000C9483000C948300E0
S11300900C9483000C9483000C9483000C948300D0
S11300A00C9483000C9483000C9483000C948300C0
S11300B00C9483000C9483000C9483000C948300B0
S11300C00C9483000C9483000C94830011241FBEB1
S11300D0CFEFD8E0DEBFCDBF11E0A0E0B1E0E6E4B1
S11300E0F4E002C005900D92A230B107D9F721E0E7
S11300F0A2E0B1E001C01D92A531B207E1F70E9470
S113010095000C9421020C940000FC012181622BC7
S113011061830895FC012281622B62830895FC01AE
S11301209281609569236283089560E875E288ECA2
S113013090E00E94CE0140E85AE166E070E08CE471
S113014090E00E94BE0040E05FEFBA0188E10E94A7
S11301502E01609100017091010185E00E947E01F1
S1130160E0910001F0910101608188EC90E00E942F
S1130170F8010E94C60180E090E00895CF93DF93D8
S1130180EC019A01AB0160E074E284EF90E00E941C
S1130190FF012230310528F480E5888381E08983DA
S11301A02FC02430310520F480E58883198228C0CB
S11301B02830310528F481E5888381E0898320C0D3
S11301C02031310520F481E58883198219C0203259
S11301D0310528F482E5888381E0898311C02034C5
S11301E0310520F482E5888319820AC0203831055C
S11301F020F483E58883198203C083E680930E018B
S1130200CC34D10559F460E283E290E00E948A0084
S113021060E283E290E00E9485000AC068E083E225
S113022090E00E948A0068E083E290E00E948500EA
S113023060E883E290E00E948F0060E883E290E04F
S11302400E94850080910E01DF91CF910895FC01F9
S1130250628391819923ECF782810895CF92DF9292
S1130260EF92FF92CF93DF93803480F46A017B0195
S1130270D82F8EE680930E016D2F60648CE490E09D
S11302800E94270180930D01C0E01EC089E680937F
S11302900E012DC023E030E02C1B3109220F331F47
S11302A0220F331F220F331FC701B60104C09695D6
S11302B08795779567952A95D2F78CE490E00E940C
S11302C0270180930D01CF5FC43020F3D03421F097
S11302D0D83421F467E803C065E901C061E08CE427
S11302E090E00E94270180930D0180910E01DF911F
S11302F0CF91FF90EF90DF90CF9008950F931F93CD
S1130300CF93DF93D82F8B018EE680930E01C0E04C
S11303106FEF8CE490E00E94270180930D01CF5F82
S11303208F3F11F4C111F4CFC11104C084E780934D
S11303300E0125C0982F9E7F31F0F801808384E65A
S113034080930E011CC0F8018083D23070F410C079
S11303506FEF8CE490E00E94270180930D01F80177
S1130360EC0FF11D8083CF5F01C0C1E0CD1780F396
S11303706FEF8CE490E00E94270180930D0180913F
S11303800E01DF91CF911F910F91089560E171E00B
S113039085E00E947E0180930C010895CF93DF9342
S11303A0EC01CB01A0E0B0E0880F991FAA1FBB1F8E
S11303B0880F991FAA1FBB1F9C01AD01220F331F79
S11303C0441F551F220F331F441F551F60E074E262
S11303D084EF90E00E94FF01215031093D832C837A
S11303E0188286E08A8388E18983DF91CF9108951A
S11303F0FC01908195FFFDCF668380E00895A1E222
S11304001A2EAA1BBB1BFD010DC0AA1FBB1FEE1F8A
S1130410FF1FA217B307E407F50720F0A21BB30BD5
S1130420E40BF50B661F771F881F991F1A9469F751
S113043060957095809590959B01AC01BD01CF01AD
S10904400895F894FFCFBB
S10504460201AD
S9030000FC
