:100000000C9466000C9483000C9483000C94830081
:100010000C9483000C9483000C9483000C94830054
:100020000C9483000C9483000C9483000C94830044
:100030000C9483000C9483000C9483000C94830034
:100040000C9483000C9483000C9483000C94830024
:100050000C9483000C9483000C9483000C94830014
:100060000C9483000C9483000C9483000C94830004
:100070000C9483000C9483000C9483000C948300F4
:100080000C9483000C9483000C9483000C948300E4
:100090000C9483000C9483000C9483000C948300D4
:1000A0000C9483000C9483000C9483000C948300C4
:1000B0000C9483000C9483000C9483000C948300B4
:1000C0000C9483000C9483000C94830011241FBEB5
:1000D000CFEFD8E0DEBFCDBF11E0A0E0B1E0ECE1B2
:1000E000F3E002C005900D92A230B107D9F721E0EC
:1000F000A2E0B1E001C01D92AB30B207E1F70E946F
:1001000095000C948C010C940000FC012181622B61
:1001100061830895FC012281622B62830895FC01B2
:100120009281609569236283089540E45DE063E015
:1001300070E08CE490E00E94A60040E05FEFBA011E
:1001400088E10E94180180E090E00895CF93DF934A
:10015000EC019A01AB0160E074E284EF90E00E9450
:100160006A012230310528F480E5888381E08983A3
:1001700030C02430310520F480E58883198229C0FD
:100180002830310528F481E5888381E0898321C006
:100190002031310520F481E5888319821AC020328C
:1001A000310528F482E5888381E0898312C02034F8
:1001B000310520F482E5888319820BC0203831058F
:1001C00020F483E58883198204C080910001809324
:1001D0000301CC34D10559F460E283E290E00E943F
:1001E0008A0060E283E290E00E9485000AC068E035
:1001F00083E290E00E948A0068E083E290E00E943F
:10020000850060E883E290E00E948F0060E883E26E
:1002100090E00E94850080910301DF91CF910895C5
:10022000FC0185E0828391819923ECF78281089516
:10023000CF92DF92EF92FF92CF93DF93803488F4D6
:100240006A017B01D82F80910201809303016D2FF9
:1002500060648CE290E00E94100180930401C0E091
:100260001FC080910101809303012DC023E030E085
:100270002C1B3109220F331F220F331F220F331F74
:10028000C701B60104C096958795779567952A951D
:10029000D2F78CE290E00E94100180930401CF5FBE
:1002A000C43020F3D03421F0D83421F467E803C0FF
:1002B00065E901C061E08CE290E00E94100180934A
:1002C000040180910301DF91CF91FF90EF90DF90C7
:1002D000CF900895A1E21A2EAA1BBB1BFD010DC0F1
:1002E000AA1FBB1FEE1FFF1FA217B307E407F507E6
:1002F00020F0A21BB30BE40BF50B661F771F881FC2
:10030000991F1A9469F760957095809590959B0157
:0C031000AC01BD01CF010895F894FFCFAF
:02031C00636913
:00000001FF
